:020000040800F2
:1000000000000120C5020008CB020008CF02000852
:1000100041030008450300088D03000800000000AC
:10002000000000000000000000000000D5030008F0
:10003000D903000800000000DD030008890C000857
:10004000F1030008F1030008F1030008F1030008C0
:10005000F1030008F1030008F1030008F1030008B0
:10006000F1030008F1030008F1030008F1030008A0
:10007000F1030008F1030008F1030008F103000890
:10008000F1030008F1030008F1030008000000007C
:10009000000000000000000000000000F103000864
:1000A000F1030008F1030008F1030008F103000860
:1000B000F1030008F1030008F1030008F103000850
:1000C000F1030008F1030008F1030008090C00081F
:1000D000F1030008AD0C0008F10300080000000067
:1000E000F1030008F1030008F1030008000000001C
:1000F000000000000000000000000000F103000804
:1001000000000000F1030008F1030008F1030008FB
:1001100000000000000000000000000000000000DF
:100120002D080008F1030008F1030008F10300089E
:10013000F1030008000000000000000000000000C3
:10014000000000000000000000000000F1030008B3
:10015000F1030008F1030008F1030008F1030008AF
:10016000F1030008F1030008000000000000000097
:10017000000000000000000000000000000000007F
:1001800000000000F1030008000000000000000073
:10019000F103000800B583B000F0BAF9384B394AD2
:1001A0001360394A1360394900E02146384B9942BF
:1001B0000BD20A684B6801F10C0488689842F4D9A4
:1001C0001168196004330432F8E72E4B1A68314B7A
:1001D0009A4200D0FEE72C4B1A682F4B9A42F9D175
:1001E000274B2E4A13602E4A13602E4B05E0002049
:1001F000106004329342FAD80B462B4A934204D241
:10020000194651F8082B5B68F4E7244B1B6813B9B7
:10021000234B1B6803B1FEE700F086F9694601A88D
:1002200000F022F9214C224BE41AA4100025AC4224
:1002300014DC204C204BE41AA4100025AC4213DC43
:100240000099019800F03AFD05461C4C1C4BE41A3D
:10025000A410002C0EDC284600F0E2F8144B53F8F2
:10026000253098470135E2E7134B53F8253098477E
:100270000135E3E7013C124B53F824309847E8E797
:10028000BABADECA0000002074000020F40300089F
:100290000C04000878563412325476987800002006
:1002A000200100200C0400081C0400081C040008A5
:1002B0001C0400081C0400081C0400081C0400089E
:1002C0001C04000808B5FFF765FF00BEFEE71EF03E
:1002D000040F0CBFEFF30880EFF309807146414A29
:1002E00010472DE9F04182B004468846124B5E6B00
:1002F0009F6B9D6A1B6B13F0020F03D00E4BDB6AE2
:10030000002B0CDB0D4800F0B7F8CDF800803B4621
:1003100032462946204600F00BF900BEFEE74BF6B8
:10032000AB6100F07FF90028ECD0034B4FF00042A6
:10033000DA6202B0BDE8F08100ED00E04417000889
:1003400000BEFEE71EF0040F0CBFEFF30880EFF3D2
:1003500009807146244A10472DE9F04182B00446D5
:100360008846084B5E6B9F6B9D6A074800F084F8D7
:10037000CDF800803B4632462946204600F0D8F8AA
:1003800000BEFEE700ED00E0541700081EF0040F69
:100390000CBFEFF30880EFF309807146134A104752
:1003A0002DE9F04182B004468846084B5E6B9F6B96
:1003B0009D6A074800F060F8CDF800803B46324661
:1003C0002946204600F0B4F800BEFEE700ED00E04C
:1003D0006017000800BEFEE700BEFEE700BEFEE7B5
:1003E00070470000E302000859030008A103000859
:0403F00000BEFEE766
:1003F400B43F00080000002078000020B43F00084B
:1004040000000010000000107800002024010020EB
:080414000000001000000010C0
:10042000FEE7000008B503460C4A12685AB10B4AB1
:100430001068033323F003030344094A934206D8A8
:10044000064A136008BD054A06491160EFE700F04F
:1004500073FC0C2303604FF0FF30F3E77C000020B7
:1004600000FC00202401002001230360014B0B60ED
:10047000704700BF040000200FB400B583B004AB88
:1004800053F8042B01938021064800F087FC0028D4
:1004900003DD0146034800F037F803B05DF804EBD4
:1004A00004B07047840000202DE9F04385B0044675
:1004B0000F4643560BB10E461EE004252846214642
:1004C000ABBE0446384605B0BDE8F08314F9011B05
:1004D00004AA1A4402F8101C0133AB42F6D304AA52
:1004E0001344002203F8102C4FF00408E94640465C
:1004F0004946ABBE8046761B002EE3D03546102E13
:1005000028BF10250023E8E708B5FFF7CDFF08BD99
:1005100008B500F097F8024A024B9A6008BD00BF88
:100520000000000800ED00E008B500F0ABF808BDE1
:10053000F8B504460D4617461E462748FFF79CFFB0
:1005400021682648FFF798FF61682548FFF794FF68
:10055000A1682448FFF790FFE1682348FFF78CFF6C
:1005600021692248FFF788FF61692148FFF784FF6E
:10057000A1692048FFF780FFE1691F48FFF77CFF72
:100580001E48FFF779FF29461D48FFF775FF1D4CF0
:10059000E16A1D48FFF770FF216B1C48FFF76CFFF5
:1005A000E16B1B48FFF768FF15F0800F0AD115F4C7
:1005B000004F0CD11748FFF75FFF06991648FFF769
:1005C0005BFFF8BD39461548FFF756FFEFE73146A8
:1005D0001348FFF751FFEDE728160008381600080A
:1005E0004816000858160008681600087816000813
:1005F0008816000898160008A8160008B816000803
:10060000C416000800ED00E0D4160008E416000847
:10061000F4160008241700082C1700080417000817
:100620001417000883691A888A4201D00020704795
:100630000268033A012A03D802338361012070471C
:10064000002070470C4B1A6842F001021A6000212A
:1006500099601A6822F0847222F480321A60074A84
:100660005A601A6822F480221A60D960044B4FF055
:1006700000629A60704700BF0038024010300024CA
:1006800000ED00E0224B9B6803F00C03042B14D018
:10069000082B16D01BB11F4B1F4A1A6002E01D4BDE
:1006A0001D4A1A601A4B9B68C3F303131B4AD15CA3
:1006B000184A1368CB4013607047164B184A1A60EB
:1006C000F0E7134B5A685B6803F03F0312F4800FA6
:1006D00013D0134AB2FBF3F20D4B5B68C3F38813DC
:1006E00003FB02F30A4A5268C2F30142013252008C
:1006F000B3FBF2F3074A1360D4E7074AB2FBF3F205
:10070000034B5B68C3F3881303FB02F3EAE700BF04
:10071000003802400C0000200024F400701700088C
:1007200040787D0110B5044601220221002000F02E
:1007300039F9204600F04EFA10BD10B504460022EB
:100740000221104600F02EF9204600F043FA10BDB9
:1007500008B501221146002000F024F9642000F0C1
:1007600081FA00220121104600F01CF9012000F05E
:1007700079FA01221146002000F014F9642000F0FB
:1007800071FA00220121104600F00CF9642000F0FB
:1007900069FA01221146002000F004F9782000F0E7
:1007A00061FA1120FFF7C9FF962000F05BFA3A20AA
:1007B000FFF7C3FF0520FFF7B5FF2920FFF7BDFFB7
:1007C00008BD38B505462A20FFF7B7FF0020FFF720
:1007D000A9FF0020FFF7A6FF0020FFF7A3FF7F205F
:1007E000FFF7A0FF2B20FFF7A8FF0020FFF79AFFDD
:1007F0000020FFF797FF0020FFF794FF9F20FFF7EF
:1008000091FF2C20FFF799FF00240AE035F814002F
:10081000000AFFF787FF15F81400FFF783FF013484
:10082000A4B2B4F5A04FF1D338BD000008B5024B17
:100830001B68984708BD00BF0401002005282DD87B
:10084000DFE800F0030A11181F2615480368490065
:100850008A401A43026070471248036849008A4080
:100860001A43026070471048036849008A401A43DF
:10087000026070470D48036849008A401A430260CD
:1008800070470B48036849008A401A43026070476A
:100890000848036849008A401A430260704700BF55
:1008A000000002400004024000080240000C024028
:1008B00000100240001C0240052827D8DFE800F0A5
:1008C00003090F151B21124843688A401A434260EE
:1008D0007047104843688A401A43426070470E4888
:1008E00043688A401A43426070470C4843688A4014
:1008F0001A43426070470A4843688A401A4342607C
:100900007047084843688A401A434260704700BFF6
:10091000000002400004024000080240000C0240B7
:1009200000100240001C024005282DD8DFE800F02E
:10093000030A11181F261548836849008A401A4384
:10094000826070471248836849008A401A43826077
:1009500070471048836849008A401A438260704794
:100960000D48836849008A401A43826070470B48EB
:10097000836849008A401A43826070470848836848
:1009800049008A401A438260704700BF000002405D
:100990000004024000080240000C02400010024027
:1009A000001C0240012A06D0052870D8DFE800F0BC
:1009B0003A434C555E67052869D8DFE800F0030B21
:1009C000131B232B32484369012202FA01F1194318
:1009D000416170472F484369012202FA01F119432E
:1009E000416170472C484369012202FA01F1194321
:1009F0004161704729484369012202FA01F1194314
:100A00004161704726484369012202FA01F1194306
:100A10004161704723484369012202FA01F11943F9
:100A2000416170471A484369012202FA01F123EA41
:100A300001014161704717484369012202FA01F13F
:100A400023EA01014161704713484369012202FA18
:100A500001F123EA01014161704710484369012215
:100A600002FA01F123EA0101416170470C48436930
:100A7000012202FA01F123EA0101416170470948AC
:100A80004369012202FA01F123EA01014161704741
:100A9000000002400004024000080240000C024036
:100AA00000100240001C024007291DD801280BD06D
:100AB00010B1022810D070471E48036A890002FA5C
:100AC00001F11943016270471B48036A890002FA69
:100AD00001F11943016270471848036A890002FA5C
:100AE00001F119430162704710B401280ED018B10A
:100AF000022815D010BC70470E4C606A01F0070345
:100B00009B0002FA03F101436162F3E70A4C606A59
:100B100001F007039B0002FA03F101436162E9E778
:100B20000648436A01F00701890002FA01F11943FE
:100B30004162DFE70000024000040240000802407A
:100B4000032822D8DFE800F0020A121A0F480368CF
:100B5000012202FA01F11943016070470C48036851
:100B6000012202FA01F11943016070470948036844
:100B7000012202FA01F11943016070470648036837
:100B8000012202FA01F11943016070473038024036
:100B9000343802404038024044380240074A136863
:100BA00043F001031360064B1A6822F001021A6039
:100BB0001A6822F002021A60704700BF0038024033
:100BC00008380240024B40F247321A60704700BFBB
:100BD0000030014010B50446002211461046FFF7D0
:100BE000E1FE084BDC60074B9B6813F0800FFAD1E5
:100BF000012200210846FFF7D5FE024BD868C0B29B
:100C000010BD00BF0030014008B5024B1B6898477B
:100C100008BD00BF08010020014B00221A60704788
:100C200010E000E0044B586000229A601A6842F01D
:100C300001021A60704700BF10E000E0024B186824
:100C4000C0F30040704700BF10E000E0044B1A689A
:100C500022F002021A601A6842EA400018607047E7
:100C600010E000E010B50446FFF7D6FF0020FFF7C4
:100C7000EDFF4FF4FA6000FB04F0FFF7D3FFFFF73E
:100C8000DDFF0028FBD010BD00B583B000238DF838
:100C90000730054B1B689847FFF7D0FF8DF807001A
:100CA00003B05DF804FB00BF0C01002008B5024B47
:100CB0001B68984708BD00BF1001002010B5FFF762
:100CC0006DFF00210846FFF73BFF0C210320FFF7D3
:100CD00037FF002410E0012221460020FFF7AEFD7F
:100CE000012221460020FFF71FFE00222146104668
:100CF000FFF7E2FD0134E4B2022CECD90222052117
:100D00000020FFF79BFD022207210020FFF796FD40
:100D1000052211460020FFF7C7FE0522072100200B
:100D2000FFF7C2FEFFF74EFFFFF712FD0148FFF786
:100D300048FDFEE780170008014B1868704700BFA8
:100D40001000002030B5141E05469BB0184605DA89
:100D50008B232B604FF0FF301BB030BD4FF402737C
:100D6000ADF80C3014BF04F1FF3323460293059312
:100D70004FF6FF7300910491ADF80E3002461E9BB2
:100D80006946284600F072F8431CBCBF8B232B60D9
:100D9000002CE1D0009B00221A70DDE707B500931C
:100DA00013460A46014603480068FFF7CBFF03B02D
:100DB0005DF804FB100000202DE9F0478E689E428C
:100DC00082460C469046994637D88A8912F4906F2D
:100DD00031D0256809696F1A6569022305EB45055D
:100DE00095FBF3F509F101033B449D4238BF1D46D5
:100DF000530530D5294600F07DFB064650B90C233B
:100E0000CAF80030A38943F04003A3814FF0FF30BC
:100E1000BDE8F0873A46216900F0FAFAA38923F485
:100E2000906343F08003A381266165613E44ED1B1E
:100E30002660A5604E464E4500D94E463246414694
:100E4000206800F0F0FAA3689B1BA36023681E448F
:100E500026600020DCE72A4600F0A6FB06460028B4
:100E6000E2D12169504600F0F7FAC8E72DE9F04FCA
:100E70009DB0804603938B891D060C4616460FD500
:100E80000B696BB9402100F035FB2060206128B967
:100E90000C23C8F800304FF0FF30C7E040236361F7
:100EA0000023099320238DF8293030238DF82A3030
:100EB0004FF0010B37463D4615F8013B0BB1252B92
:100EC0003ED1B7EB060A0BD0534632462146404688
:100ED000FFF772FF013000F0A480099B534409938F
:100EE0003B78002B00F09D8000234FF0FF32CDE9CE
:100EF0000523049307938DF853301A932F46052248
:100F000017F8011B4F4800F033FA049BD0B9D906FB
:100F100044BF20228DF853201A0744BF2B228DF89E
:100F200053202A782A2A15D0079A2F4600200A250E
:100F3000394611F8013B303B092B4DD9B8B10FE0D0
:100F40002F46B8E73F4A801A0BFA00F01843049086
:100F50003D46D3E7039A111D12680391002A01DB75
:100F6000079204E0524243F00203079204933B7855
:100F70002E2B0CD17B782A2B33D1039B1A1D1B6897
:100F80000392002BB8BF4FF0FF33023705932E4D6D
:100F900039780322284600F0EBF938B14023401B92
:100FA00003FA00F0049B0343013704933978274880
:100FB0008DF8281006227E1C00F0DAF9002838D0BF
:100FC000234B13BB039B073323F00703083303931F
:100FD000099B4B4409936DE705FB023201200F4644
:100FE000A6E700230137059319460A25384610F86D
:100FF000012B303A092A03D9002BC8D00591C6E746
:1010000005FB012101230746F0E703AB00932246CD
:10101000104B04A94046AFF30080B0F1FF3F81467A
:10102000D6D1A3895B063FF536AF09981DB0BDE860
:10103000F08F03AB00932246064B04A9404600F014
:1010400081F8EAE7803F0008863F00088A3F0008F1
:1010500000000000B90D00082DE9F04791461F4639
:101060008A680B69DDF820809342B8BF1346C9F83F
:10107000003091F8432006460C4612B10133C9F8FE
:1010800000302368990642BFD9F800300233C9F80E
:101090000030256815F0060507D104F1190AE36848
:1010A000D9F800209B1AAB4228DC94F84330226820
:1010B000003318BF012392062DD404F143023946B0
:1010C0003046C047013020D02368E568D9F80020B9
:1010D00003F00603042B08BFAD1AA36822690CBFF6
:1010E00025EAE57500259342C4BF9B1AED184FF021
:1010F00000091A344D451AD1002008E00123524658
:1011000039463046C047013003D14FF0FF30BDE8CB
:10111000F0870135C3E7E1185A1C302081F84300FD
:10112000224494F8451082F843100233C5E70123A6
:10113000224639463046C0470130E6D009F1010960
:10114000D8E700002DE9F04301F1430C0C46097E7D
:1011500085B06E291746064698460C9A00F0B38073
:1011600022D8632936D00AD8002900F0B98058293E
:1011700000F0838004F1420584F8421032E06429D3
:1011800001D06929F6D120681368050603F104012E
:101190002AD51B681160002B03DA2D225B4284F8EC
:1011A00043206F480A2239E0732900F09D8008D857
:1011B0006F2920D07029DDD1236843F020032360FC
:1011C00003E0752917D07829D4D1782384F84530E5
:1011D000644855E01368191D1B68116004F142054D
:1011E00084F8423001238CE01B68116010F0400F3E
:1011F00018BF1BB2CFE713682568181D10602806BA
:1012000001D51B6802E06806FBD51B8854486F298E
:1012100014BF0A220822002184F843106568A560E3
:10122000002DC0F29580216821F004012160002B7F
:101230003DD1002D40F08E806546082A0BD12368F1
:10124000DB0708D5236962689A42DEBF302305F8C0
:10125000013C05F1FF35ACEB05032361CDF80080BF
:101260003B4603AA21463046FFF7F6FE01304DD13A
:101270004FF0FF3005B0BDE8F083394884F84510E1
:10128000136821681D1D1B6815600A060BD5CA0767
:1012900044BF41F0200121601BB9226822F02002E6
:1012A00022601022B7E74D0648BF9BB2EFE76546C4
:1012B000B3FBF2F102FB1133C35C05F8013D0B46B1
:1012C0000029F5D1B9E7136825686169181D106018
:1012D00028061B6801D5196002E06A06FBD5198053
:1012E000002323616546B9E71368191D11601D6865
:1012F00062680021284600F03BF808B1401B60609E
:1013000063682361002384F84330A7E723692A46F2
:1013100039463046C0470130AAD023689B0713D412
:10132000E068039B9842B8BF1846A3E701234A46EA
:1013300039463046C04701309AD00135E368039AF8
:101340009B1AAB42F2DCEBE7002504F11909F5E743
:10135000002BACD1037884F8423004F142056CE7ED
:10136000913F0008A23F00080000000000000000BC
:1013700001F0FF01102A2BDB10F0070F08D010F846
:10138000013B013A8B422DD010F0070F42B3F6D14A
:10139000F0B441EA012141EA014122F007047FF063
:1013A00000070023F0E80256083C85EA010586EABA
:1013B000010685FA47F5A3FA87F586FA47F6A5FAF6
:1013C00087F68EB9EED1F0BC01F0FF0102F0070202
:1013D00032B110F8013B013A83EA010313B1F8D1AD
:1013E0000020704701387047002D06BF354603388E
:1013F000073815F0010F07D1013015F4807F02BFC7
:10140000013015F4C03F0130F0BC0138704700BF17
:1014100010B5431E0A44914200D110BD11F8014B92
:1014200003F8014FF7E7884210B501EB020307D834
:10143000421E99420AD011F8014B02F8014FF8E719
:101440008342F5D98118D21AD34200D110BD13F8C6
:10145000014D01F8014DF7E738B50546002945D0A3
:1014600051F8043C0C1F002BB8BFE41800F0D2F870
:101470001F4A1368104633B9636014602846BDE8FC
:10148000384000F0C8B8A3420CD9216862189342D2
:1014900004BF1A685B68636004BF5218226004606E
:1014A000ECE713465A680AB1A242FAD919685818EB
:1014B000A0420BD120680144581882421960DDD146
:1014C000106852685A6001441960D7E702D90C23AA
:1014D0002B60D3E7206821188A4204BF1168526844
:1014E000626004BF091821605C60C7E738BD00BFB7
:1014F0001401002070B5CD1C25F0030508350C2D16
:1015000038BF0C25002D064601DBA94203D90C2368
:101510003360002070BD00F07DF8214A1468214638
:1015200091B9204C23681BB9304600F063F8206065
:101530002946304600F05EF8431C24D10C2333606A
:10154000304600F068F8E4E70B685B1B18D40B2BFF
:101550000FD90B60CD50CC18304600F05CF804F188
:101560000B00231D20F00700C31AD3D05A42E250CB
:10157000D0E78C424B6816BF636013600C46EBE704
:101580000C464968CCE7C41C24F00304A04205D0F3
:10159000211A304600F02EF80130CFD02560DBE76D
:1015A0001401002018010020F8B5074614460E4625
:1015B00021B91146BDE8F840FFF79CBF22B9FFF7FB
:1015C0004BFF25462846F8BD00F026F8A0420FD272
:1015D00021463846FFF78EFF05460028F2D03146F7
:1015E0002246FFF715FF31463846FFF735FFE9E79A
:1015F0003546E7E738B5064C002305460846236024
:10160000FEF710FF431C02D1236803B12B6038BDE5
:101610001C0100207047704751F8043C181F002B34
:10162000BCBF0B58C0187047537461636B2066725F
:10163000616D653A0A000000205230203D202025CF
:101640003038580A00000000205231203D2020256B
:101650003038580A00000000205232203D2020255A
:101660003038580A00000000205233203D20202549
:101670003038580A0000000020523132203D202529
:101680003038580A00000000204C52203D20202510
:101690003038580A00000000205043203D2020250B
:1016A0003038580A0000000020505352203D2025B9
:1016B0003038580A000000004653522F4641523A33
:1016C0000A0000002043465352203D202025303898
:1016D000580A00002048465352203D20202530382B
:1016E000580A00002044465352203D20202530381F
:1016F000580A00002041465352203D202025303812
:10170000580A0000204D4D464152203D20253038DA
:10171000580A00002042464152203D202025303802
:10172000580A00004D6973630A000000204C522FD4
:101730004558435F52455455524E3D202530385848
:101740000A0000005B486172644661756C745D0A52
:10175000000000005B4275734661756C745D0A00A1
:101760005B55736167654661756C745D0A000000C6
:101770000000000000000000010203040607080941
:101780006208620862086208620862086208620809
:1017900041002100410841002100210021002100D9
:1017A0002100210000002100200020002000210055
:1017B00040002000200020002000410020002000E8
:1017C0002000200020000000200020002100210037
:1017D0002000200021004100610862084100210032
:1017E00041004100410041004100410041086208C0
:1017F0004108410862080000093AA829E831C831C7
:101800006208620862086208620862086208620888
:101810004108410041082100210021002100210050
:1018200021002100210021002000200020002100B3
:101830004000400040002000200040002000400008
:101840002000200040002000210021002100210074
:101850002000200021004100610861084100410092
:101860004100410041004100410042086208620815
:10187000420841088208A729E831E931E939C41052
:101880006208620862086208620862086208620808
:1018900041084108410841002100210021002100A8
:1018A0002100210021082100210020002100210029
:1018B00041004100410021002100210021004100A0
:1018C00020004000210020002100210021002100F3
:1018D0002000210021004100410041004100410061
:1018E000410041004100410042086208620842088C
:1018F0004208620821006A42E831093A6621A410D0
:101900008208620882088208620862086208620827
:1019100042084108410841084100210021004100DE
:1019200021002100210021002100200021002100B0
:1019300041004108410021002100410021004100F7
:101940002000200021002000210021002100210092
:1019500021002100410041004100410041004100BF
:1019600041004100410041004208620862086208EB
:1019700062086208093AE831093A093AA308C41032
:101980008308830883088308620862086208620883
:101990004208420862084208410821004100410013
:1019A00041004100210021004100210021002100CF
:1019B0004108410841002100210041084100210067
:1019C00020002100210021004100210021002100F0
:1019D0002100210041004100410042084100410036
:1019E0004100410841084208620862086208820812
:1019F0008308A3088B4A093A8B42C408A308E41859
:101A0000A310A308A3088310830882086208620851
:101A1000620862086208620841004100410041001A
:101A2000410041004100620861084100410041005D
:101A300041084108410021002100410841002100E6
:101A40004100210021004108410041002100210006
:101A5000410021004100410041006208620841004C
:101A60004108410862086208620882088208830807
:101A700083080D5B09326A42293A66210519051966
:101A8000A410A310A310A310831083088208620877
:101A90006208620862086208420841006108410069
:101AA000410041006208820882086208410041004A
:101AB0004108410841004100410041084100210026
:101AC000410041002100410841084100410021003E
:101AD000410041004100410042086208620862087A
:101AE0004108620862086208820883108310830834
:101AF000E9318B4A4A422A3A8721E831E8316B4A78
:101B0000C410A410A310A310A310830883086208B4
:101B100062086208620862086208610861084100A0
:101B20004100410082088208820862086108610859
:101B300041084108410841084108410821002100AD
:101B400021002100210041084108410041002100FD
:101B500021004100410061084100620862086208FA
:101B600062086208820882088208A310A30882081B
:101B70000D538B4A6B420511C410E510051946211F
:101B8000C410C410A310A310C310A30883088208B4
:101B90006208620882084208620842086208620815
:101BA0006208620882088208A210820882088208FD
:101BB0006208200061084100410021004100410805
:101BC000410041004100410041004100410021002D
:101BD0004100410041004100420862086208620879
:101BE00062088210820882088208A31062006A429A
:101BF0006B428B4AC829E510462126198729C8312E
:101C0000A410A308A308C410A310A310830882087B
:101C1000820862088208620062084100410082086E
:101C2000820862088208A310A310A210820882080A
:101C300041006108410820004100410821002100C5
:101C4000410041004100410041004100410041008C
:101C500041004100410041006208620862086208D8
:101C60004108620882088308A310A30805198B4263
:101C70006B422A3AE510051105194621C831293A67
:101C8000C410E410A308C410A310A3108308820892
:101C9000830882088208620062086208620882087B
:101CA000820882088208A310A310A3108210820861
:101CB0004108410820004108200041002100210086
:101CC000410041004100410041004100410041000C
:101CD0004100410041004100620862086208620858
:101CE0006208A31082088208A3084200EC5209325D
:101CF0006B42093AE9310932C831E8314A428B4A2C
:101D0000E510A408E410A310A310A310A3108308E7
:101D10008308820882086208620062088208620002
:101D2000820882088208A310A3108210A3108208E0
:101D30006208410841082100210021002100210002
:101D4000410041004100410041004100410041008B
:101D500041004100410041006208620862086208D7
:101D6000620883088208A308A408C8314A3AAC4A2A
:101D7000A829C4108721A829AB4A0D538F6B117C69
:101D8000E410E410C410C410C410C410A310A310B5
:101D90008308820883086208620062086208820879
:101DA00082088208820883108210821082106210DA
:101DB0008210210021002100410821002100210082
:101DC000410041004100410041004100410041000B
:101DD0004100410041004100420842086208620897
:101DE00083106208A310E4108308EC4A6B424A3A5D
:101DF000E41025192619672187294A420D5BF17BDA
:101E0000E4100519A408E510E410C410C410A310D0
:101E1000A3108308830882086208C3106208A3081D
:101E2000A310A30882088208620862086210620890
:101E30004108410841088210210021004100210091
:101E40004100410041004100610841004100410062
:101E5000410041004208420862086208620883109B
:101E6000A3108308A308A3088B4A2A3AED526719E6
:101E7000051925196621C8316B4AEC52AF6BB38C3A
:101E80006721C4080519E51805190519E410C410DF
:101E9000C410A3088308830882084521E310A20820
:101EA000A310820882086208620862086208620859
:101EB00041086208000000002100210021004108C3
:101EC00041004100410041006208420842084208C6
:101ED0006208620862086208620862086208831089
:101EE000A3108308630866216B42ED4AE929E929BA
:101EF000093A093A8B4A4A422E636F6B5284359DE8
:101F0000093A6621E410E51005190519E418C41012
:101F1000E410A3088308A308A30825192419A2081C
:101F2000A310820862088208620842084108420839
:101F3000410041086629494A6208410821004108D8
:101F400041004100410061086208420862086208DD
:101F500062086208620862088308620883108310BE
:101F6000A410A310A4106F63AC4A8B42261167190A
:101F70006729293A0D5BD0735284D49497A519BE72
:101F800005194A4266212519262105190519E5106A
:101F90000411E410C308C410E410A308251962005A
:101FA0008208820862086210420842084208420819
:101FB00061088208EE83AD93202021102100620089
:101FC0004000610062004100410842086208630865
:101FD0004100A3088208A310A31083108308A31054
:101FE0008208A308AC4AAC4ACC4A461925212621CE
:101FF000C929E9310D5BB073938C35A59AD69EF74C
:102000008729E4104A428729672126212619E518E5
:1020100025192519E41005190519E418E410A2087A
:10202000A310620862084208420842084208620897
:10203000820801004D6BEB6A8220000841002100FC
:1020400020006100610062086108620862086200A5
:10205000C308C310A3088308A310A310A308E4189F
:10206000251905198F636F5B4A3A0932293A4A42AA
:102070004B3A0D53327CB49476ADBBD6BFF79EF786
:10208000A829872946216B42E931462146210519B5
:10209000041146214621462146212521C310A308CB
:1020A0008208420862084108410842084208620862
:1020B000610000004B424F630100210841004200D3
:1020C0004108420862006208410862086208830809
:1020D0000419C310A308C410E4108308E410041901
:1020E00083086E632E5BAC4A461987214A42CC5264
:1020F000F06BB48C97ADD8B59BCEFFFF9FF7B7B50B
:10210000E931A82967218729EC52E9314621462186
:1021100005192619A729872966294521E410A3084E
:1021200082086208620862084108410841004100D3
:10213000410021000C2A6E2A640041080000420080
:102140006208420862084208410862088208C41016
:102150006521E310C310E410A4082621E410C41084
:10216000CC4AB06B7384A821C8298721C8298B4227
:10217000F07376A55AC6FCD6DFEF7FE719BE117C57
:10218000AB4A0932A829093A6B42EC52E83167217F
:1021900066214619C831C831A7294621E418A31081
:1021A000E410A308620862084208410842082100BE
:1021B00042000100B03A902A840021002100210849
:1021C000220842086308420862086208620804198B
:1021D000C7310519E410C4080519C41025192519BB
:1021E0003274327C0932AC4ACC4AEC520D53327C08
:1021F000F49CDBD65EE7FFF77EE7B7AD32744E5B4B
:102200000D5B8B4A293A8B4AAB4A4A3ACC52E831A9
:1022100067216721C829093AC8312521C310A310B5
:102220004521C3106208620862084100620821006B
:10223000210001004F2A6F32830841004100201025
:1022400001084208630863086208620882084519A9
:1022500045210419C410C41046214619E40811741C
:102260003274CD4AA829C8314942AB4A1174369D0F
:1022700018BEFFF7FFF7FFF75ABE737C0E53AC4250
:10228000527CED528B4A8B424E63CC524A3A2D5BC4
:10229000E831C831C8292A3AC8312519C310A3101A
:1022A00005190419A308620862084208820821007F
:1022B000410002000F2A925B611041000419E659A7
:1022C000621062088310620862088208C3106621E7
:1022D000E410E410C41005190511E408AC4AAF6B12
:1022E000B063AC4ACC52CB520C5BEC52938498A5B1
:1022F0009ACEFFF7FFFF7EE797A5D06BED4A8C42A1
:10230000B7AD8F630D5B2D5BD0736E632D5B4A425F
:10231000ED52093AC831E831A7290519E410A31094
:1023200083080419C410820862086208A3104100DF
:1023300061080200EE294D42401061008631677A43
:10234000C3204108C318620862088208C4104619F5
:10235000E4182519E41005112519A721AF6B527C4B
:10236000C8294A3A0D5BEF7B3084928CD8B53EDFAA
:102370007EE7BFEF7EE75ABE93846F5BCD4A0A2AA1
:102380009FEF327CD06B317CB38C5284D06B0D5B71
:102390008B424E63293AC829672105194621A310AB
:1023A000A308C310E41082086208620862084108AA
:1023B00041080200CD2969212010200034ADF1CC64
:1023C000C6414108A31082086208C310A308E410A4
:1023D000E4184519E4104619E5102D538F636A3A45
:1023E000EC4A0D53AF73718C9194B29497ADFFFF8B
:1023F0009FE7F9B577A5F594B06B8C428C428C427F
:1024000039BE15959384F494B7AD56A5B38C8E63FD
:102410000D5BAB4A2D5B093266216621E410C410C6
:10242000C4108200C41025198208420862084100C5
:1024300020000100AD21CC29410800003CF74EBC32
:10244000C962400861084100C310E418C408C41000
:10245000E41005112511C408AB4A4E5BEC4AE83183
:10246000AB42D073F49C18C679CE54AD55A5FCD6BA
:10247000F9AD537C327CF1734F638C4A2A3A8C4A13
:10248000317C9384159D7AC63DDF9AC655A592840A
:10249000AF734E63AB4A0D53A82905192519E410F3
:1024A000E410C30883080519A308820862084108DC
:1024B00040000100AC21F55B42000000BDFF2EB4DE
:1024C0002F8C610882088208E418E410A408C41064
:1024D00005190519E5100932D06BEC4A4A3AEC525D
:1024E000CF73928CD7BD7DF7BEFFDADEB6B5728CA6
:1024F00090636F5BB16B6F638C4AED528C4AE93924
:10250000D494938C7AC65EE7FFFFDFF77AC6359DD9
:10251000928C8F6B0D5B293A8B4266210511051950
:10252000E410E410A308A308A308C310620862081B
:10253000820801080D2A78646500210017DE225107
:1025400033AD811041008208A308A308C410051907
:10255000051925194619F0736E5B493A8A426E6374
:10256000F39418BEBBD6BEF7FFFF1BE796AD0C5B1E
:10257000CD4A0E536F638C4A2E5BAC526729051906
:10258000D8B5F49C5AC6FFFFFFFFFFFF9EEF59C668
:1025900035A571846E63CC4AE8316A420519E410AE
:1025A000E410E410E410A3088208A3106208620893
:1025B00082082100CA292E22EB292108B6D5E6611E
:1025C000284AA2108208A3108308A308E410251942
:1025D00005190511D06B117408328B4A2D5BF49CE0
:1025E00018BE9ACE9EEFFFFFDEFFDBDEF39CCC5AD7
:1025F000ED4A8B42ED520E5BC831C41005212621F5
:102600007ACE5ACED8B57EEFFFFFDFF7FFFF9EEF01
:1026100018BE55A5107C4D5B2932C82929320511F9
:10262000C4104619C408251982088208831062085C
:1026300061004100A508081186084310F7DDA5597F
:10264000C318621063006200C308E4100411051986
:10265000C4084E5B727C8B42AB4A4D633184D7B564
:102660003DE7BFF7FFFF1CE75DE7B6B5AF732D632E
:10267000AC4A0D532D5B87292519A8316A4A2521BB
:10268000F49C7ACEBBD6FCDEBFF7FFFFFFFFFFFF57
:10269000BEF759C6359D4E5B6A3A87214619093205
:1026A000E5106621E4106621A3088208A3108210B9
:1026B00082008200210047292308431071A40A8365
:1026C000C420630863088408C41004190411662137
:1026D000EC4A11740D4BEC4A4E5B107C76ADFCDE7F
:1026E000FFFFFFFF1CDFB6AD96ADB2944D63AB525A
:1026F0002D5BAB4A46214621C83125216A4AE418A0
:102700004E6B528C18C6DBD6DBDEFBDE7EEFDFFFC6
:10271000FFFFFFF7BBCEB38C8A3A87210511051165
:10272000E831E4100411C308A3088208820882106B
:10273000E31082008210E3280100230862206C93DA
:10274000328C88316300A408C41004190411E831E4
:10275000B48CED522D531174B38CB7AD7ACEDFFF2C
:10276000FFFF5DE755A5728C5184CF73CF732D5B4E
:10277000083A4621A731AB4A6A4AE410C410252121
:102780004E736E73518CB6B5BAD6BBD69BCEDCDE1B
:102790009FF7DFF7FFF7F8AD0D4B872126190511DD
:1027A000E510C831A308E410C41062086100A1005C
:1027B0006300211821086208651028006FB2924A50
:1027C000AEC14A992D2AA3186711C2180D222F7C79
:1027D0000E4BAD52318CB4ADF7C51DDFFFEFDDFF01
:1027E0001CE7F7B531846F8C0F7CCF7B2D630932EA
:1027F00026210742474A27426731C9390621C318B3
:102800002E6BCF7B8E73107CD39439C6DCD639C641
:102810005AC67AC6FCD69BC62D53E8294619061916
:10282000E510E410E831620083088308610081004C
:102830006300410862080108AE5A713ACBA16D39B4
:10284000EC8149699864C310E6086631336C6C63A7
:102850002D53F183B7B5FADE5CF7FFFF7DDF74AD72
:1028600055ADF59C106CEE836E6B8B4287394A3AFE
:10287000C93186310321E3184629E518A8316631AC
:102880008B524E6BAF73AF73CF73928CB7B55ACE7A
:1028900018BEB7B597A5359D4D538B4246192619DD
:1028A000C410C3080411A731A41063088208820071
:1028B000410062006300221811633553EAB9AD513B
:1028C000728B0F839A5C62002819EC5A6E532B5B53
:1028D000EF7376B53DCFDFF7FFFF9EEF77AD318425
:1028E00097AD56A5D063EC62E839CA31E8494A3A57
:1028F0000619051986314529462946292629A83968
:102900004629C8310D5B6E6B2D634D63F07BF39CE4
:10291000F8BD39C6B7AD72844E5B2A3AA8292A3A67
:10292000E410E4108200C410672942008308820882
:10293000A2086200640022186F4A575B4EFB6B517D
:10294000B4A3F3B37A6C83086C3AEC520C4B0F7C53
:1029500053ADFCE6FFE7FFFF5EEF96ADB073EE5AB6
:1029600073846E638C4A0932693A6B394631672940
:102970008721882947298731A731E8394629A8398D
:1029800025216729A8316A4ACC526E6BAF736D6BF3
:10299000B39435A55AC6F8B57284AC4A093AC82929
:1029A0002519E408AB426200A410C8394200620055
:1029B000A2004100440001006B19D98387D13694ED
:1029C000CE89D0B23A9DA310A7214A3A11749AC673
:1029D00057CEBFFFDEE79EE7D9BD317CCF732C4ACF
:1029E000EC4A8932EA41693AA729093186316631D0
:1029F000C831C939072109428731E841A739E5289B
:102A00008729A8316629C831E839494A0C632C6303
:102A100031848F733184159D56A552840D536A42BB
:102A200008324519293A8308420087314629420075
:102A30008521E741ED52D394514B989363B8BA8402
:102A4000B09A8EAAFABDA210651928222F537EDFF4
:102A5000BDFF3BE7D6B5769DB48C7284F073EB5125
:102A600089428A32A831A5298829C9396529663958
:102A7000C831C939A9396B528A5A65312D73673902
:102A80004529873187296731672987310842CB5A21
:102A90008F738F738F73D07B8F6B4E638F63ED5209
:102AA0008B426A3AA729051925218731C41867295D
:102AB0006A424762B8B5D9C6746C56ABE5C81B54B8
:102AC00096ACAD8A5284A310AA4A492AD26BFFEF72
:102AD0005DEFF8E699E6569D93846E5B6B3A2A5A51
:102AE000083A8829C831E649CA416721E739883957
:102AF0006A52094AC9490952729C4952CB62CC6A4E
:102B00004529A731A83987316731A831A731C7399D
:102B10006A4AEC5A6F6BB073B0732E5B4A422A3A22
:102B2000AC4A6A42293A083AE839F8BDE418A731B4
:102B30000D6347628B522A532E4BB6C306C1F40174
:102B4000F6A40E8BC508C829EB4A0D43328C7ACE09
:102B500097B539F7B9F6AF734C53CC422B3AC84905
:102B60008A29AA39EC51549C12AD1173474AEB41A2
:102B7000E8414A5A4A5A6B622A526E736A5A08529C
:102B8000C741863987394731A839A8398731A731F4
:102B9000C83187310942AC524E632E632D5B293A0E
:102BA000093AC831C831A7316D7399D60421662915
:102BB0002629064A25214221149DB4D3A4A0760AD1
:102BC0008D7216DD040090636C42705B58E69AEEDD
:102BD000D49C32B5D4CDB2A4693A8B32EA39EB3900
:102BE000598459ADF49A0E52AC943AC44A73D05AEF
:102BF000B3A46A5A0C736E7B6B522A4AA7398E7B38
:102C0000AA62E849A741C841094AA8310942E839FE
:102C1000A731A73187312A42E9394A42093ACB52D2
:102C2000C931E931093AA63174AD99D66531E41854
:102C30006731C6316B4A096B58D630CB8488BC6487
:102C4000F1BB37EDCC49948CEE5A327CD0BC58EEB7
:102C5000D3A434BD18EFB9EE093A8A3A6C4AD34A84
:102C600017635353EE700520F6DEAA58D9FEF4839D
:102C70002E73AB622852A8390B428D520D6376AD8C
:102C8000695A0C6B4A5A29524A4AA7392942494A79
:102C90000842C731A731A7316629E839E8398631BA
:102CA000C831A8318731C2189CF757CEC639863152
:102CB000A731E8292A4219F7D2B48DC284689B95BE
:102CC00095DDB2D4BCEED07B0A426E6BAB8B56E680
:102CD0007CF70C6BBBFF3AFFF4A4E739316B543A35
:102CE0000A00ED00B07102386E7BA3408A9237BDB6
:102CF000CC624D6BAE7B328C58A5758C73846E6341
:102D00008E7B6E7BAB62EC6ACB6208426A4A694A90
:102D1000494A694AA731C739452930844C6B24296F
:102D20000521E518E4200742B9DE474AC218694A7E
:102D3000C739051147315BFFCE9B0BBA94D49BC6B4
:102D400055DEACA315CED6BD695207424F9C51B596
:102D500012AD852995BD1AEF56D6EC7253736C00EF
:102D60008A18AD08EB40E981B7B473C5004099FEFD
:102D70001AC679D699D676AD2B4207198400010080
:102D80006E7B2D734D738D7B6D734C6B9294718C38
:102D9000AA5A6952AA52C739B294E220074A643942
:102DA00087394629E420DADE98DE4E8C07428631E8
:102DB000E639C831A3283AF7865149A955ACD8E677
:102DC00035DEC88211C6BBF7F9DE78CEB7C5B3BD14
:102DD000F1A480008418FEFFB5E676D5EB284910F3
:102DE00047086828A9306A6AB19B15CDF4D4D4EDA0
:102DF000E8391CE71BE78E73010043000200E4186A
:102E000093946E6B0C63EF8317CE94B554AD508CD6
:102E100091A42C6B6C6B91940B6380180A734B8399
:102E2000A64186394952FEFF5AF7E541EF83210852
:102E300002294C6B896A5BF700204CC22D4A8EAC8C
:102E4000D8FEC561B0B59AEF0E7CF6C55AD63BEFF9
:102E5000BADEC2006510DADE77F7D7E505100408A0
:102E600046104861C83867212541507A76D556FE0C
:102E7000B29C8A5A34B57DF79194A7398B5A6A521D
:102E8000C83156AD99D695B50E84EA62A5392008A9
:102E90002F94F2A4508C7094A1184018B4CDB4D5DE
:102EA0000B6BE74938CEDDFFB0A4885A074A000013
:102EB0000010CC7B10C5D9E66328ADC2F66B56FE78
:102EC000CE936D9311AD3AF72D6B8E83B07BEF7B74
:102ED000F08344002300B19C9AFF18EE2851A730DC
:102EE0002841844002100208E8302920096A75DD73
:102EF000D9E60008EA6A57DEDDFF78DE8962EC7207
:102F0000CD52B8B58E73A539C1208018C1204010AC
:102F1000A120B1A474B584312008601812BD77EEE9
:102F20008C7B695A3CEFDDFF22318B7BC21800009D
:102F3000C5494D942FCD12ADC530C6803443EDBB8D
:102F40008108C6499ADEFBF6928B129CF07B717C5D
:102F5000B3944F4283004F94FEFF3BFF8769A73035
:102F600044400218000000188B180B192B7A8C8231
:102F700057D60008C23056DED7EEAFA4CE932C83CE
:102F8000F7C50B6B274A23216008231982084208E2
:102F9000200028526C6B23218220A230F2B498EEDC
:102FA000046AB0BC3BFF5BF7C86A6B83E31881001F
:102FB0000B6B4F849BF7832025428F5B134BA51926
:102FC000A210A43993BD58CEC4109494B49C35BDBE
:102FD000CD726F63600077EEFBEE7DFFCB51204832
:102FE0000010001861000100016000C044F02EFADA
:102FF0005CFD441800002E73D7CDAEAC74A4A54977
:103000000842AA5A2429C2186008E2104000A210FF
:103010008110A1200A63E2108220075AF2B432C55F
:10302000415177EE3AF7F5CD12BDA96A6010600004
:10303000A962CC7BBBFF0C7B71BD107C125B473A55
:103040006208A539464ADADE25216729CD6256BDD8
:1030500011946C63D09CB5DD519C9DFFAF8101380C
:10306000010000080028C378C6A022B885B8898965
:10307000EA61AA4163100000863997EECB7283297A
:10308000A531A639C2182429821061088110C218FE
:103090006539AA6A063A20008118CA72B1B4845907
:1030A000F1C4D7E6FCFF2EA4CA7A88620008054264
:1030B00093CD75E696EEB9FE17F717CE4D528331D4
:1030C0000421A5394329D6BDA31067314A52F4AC77
:1030D00099DED5B5D4CD6FB42B73DDFFCE9801301A
:1030E00023000008009041B865A0C6A0C760210079
:1030F000000004002F4A400002002C7B73CDE952EF
:1031000027420319620821002000811064318431B4
:10311000075A14C58431600085392B83CD9B20303C
:10312000F9FE59F7FBFF46620B83A128455A59FF68
:1031300096F699FF95F64FAC6883F6D58841E02066
:1031400082108110232933A5000066314631319465
:1031500070AC8D621BF72DAC296B19E74DA923507C
:103160000018A05866C0C5B064800038020820006E
:103170002218CC18123A61100300631013C531A451
:10318000E2184008C3180000200000000229433163
:10319000EFA3AE9B81184000E228075AA559C982C7
:1031A000B8E6BCFF19E74E9C476A098376EE14DE49
:1031B00055E612E66EAC37E604526B7BF08B0000EE
:1031C0000000A210E218895A4531210862106E737E
:1031D000F0B3D071FDEE677A664A6B736CAA078113
:1031E0000050C7C12DC165480020000003212130D7
:1031F0008750D010D43105218618E618A741D3BBDB
:1032000020004008000020004008A95AE2280A7364
:1032100078F6D2C4E230200864410241424977F690
:10322000F8E69CFFD5BD8F9C4A83B3E552CDA86AD2
:1032300097E670C547625094F4C5A962EF83C21047
:10324000410882106108242934B500084108494A20
:10325000F3D39089EE5ACE92719CC42815E5A778D5
:1032600021882CD24868040804000A4B0EADA450F3
:103270006960D4081221B68C8510C9312611AC8A38
:103280000000200002216B736F94D1A46862B2B475
:1032900057F654DDB5D5802094D5CDA3E97A97EEC5
:1032A0009AF79DFFBEFFA0186EA48FBCA459A12859
:1032B000709CA662AE83C631CD73CB62CB5AC72950
:1032C000000020004100242971A4611800002100A1
:1032D00051BB6B894C424D71AE7A0B5A54C40230CB
:1032E00069A9886000202228C91858A573D626200D
:1032F00087685619D0188F42D17B4621A3008FAC26
:103300000008000811A5D3C58A73C8624C8375CD27
:10331000F5ED54DD286A2B8395DD0EAC297B15D69F
:10332000DCFFFDFFAE7B00008862C65981280008E3
:10333000811829734E738629273AC739073AE82935
:1033400000002100A310A21885410B7300000100AA
:10335000B0B38AA28D620730464007318648E1202B
:1033600048710300602000686B615C8C7BD6D008DC
:10337000E66833219010CE21107C494285192362E2
:1033800000080E8C93BDC762A339465ACE93F7DD71
:1033900077FE58FE60282FA4D2CC0149AFAC18F7B5
:1033A0009CFF9BEF00000000C328621845392431C0
:1033B000000072BD4A524419C631E741884A293A91
:1033C0006108410083082008E2284852C3186200BF
:1033D0002B83EFD3CB718B41A650432843280001A8
:1033E000C52883004439A098A788FF943552392A0C
:1033F0000140CF18F2209142C3084529CA6ACCB3D4
:103400004B7B8FA4C86A2131C0202A7BC97295DD0D
:10341000F5F5B5ED00204B83EA8A0028CFB419F703
:103420007BFF76CE60080008010805218731E84956
:10343000000835D64531E210C2100321E539494272
:10344000810821000100000823312431C318C41071
:103450006A8332E4CA78F04A87406350000820004B
:10346000A308631801208CDB4BB99A329551963A28
:1034700024388C10B218EF3120000100C438F0B3AA
:1034800031B5C86A4231C120A441265A876A93D512
:1034900011DD12D54C8377DE6349A038F0BCD8F635
:1034A000D9EE6B6B6008000001006308A418263198
:1034B00060188F9CE4202321C21803212221A73108
:1034C000C31800000000210824310B6B04210942BD
:1034D000EA8212ECEA90D863CF590999615106301B
:1034E00042080020896913ED8FA9F329AC382C2AF2
:1034F0008A49690091102B112000020800088839C0
:103500008A830973E22843318441E1306EAC92DD55
:103510006FCC4FBCDDFFD19C2020466AF0BCB8F6D2
:1035200019F760182100000000000000A83984107D
:1035300023290642C318E218031944214321041920
:10354000C310000021002108A2188952294AE9412C
:10355000AB8A4DD34EC29FB5D68B0EC92DFCB2B1EE
:10356000918BEC92D1BB4D9B6D7905080210400008
:10357000AB512500AE10EB100000021020008200BD
:103580004973E549022924316018055292D554F651
:10359000D4ED2FB412AD633180284A8B93CD19FF3F
:1035A000D8E600082208210000004110C4200200D3
:1035B0000321A631C310C110A210C310A5292521D3
:1035C00020004108410800002000E318C8394B4A98
:1035D0006C826BC34FD39CB438AD31D123F135E34A
:1035E00075C46B9329722228CA6100202208010841
:1035F000086902006908CA18000801084000200094
:103600008331E6412329A118E228A44935EE75FE4D
:10361000F8FE887A57D677D6E5594A8BF4D519F74C
:103620008C73000822082000000000082110463199
:103630006110C731A31043296108A208C210C31842
:1036400000004108000000002000C31087316B52C9
:10365000E64810D572D4539BF9DE51A9C6D8EF8144
:1036600015B4E351C6510541EA7A603803000338C6
:10367000E8A021084500EA20000800002000001012
:103680002329C218E2206431675A876A96FE75FEC4
:1036900095F6476AFEFFB4BDE9820DA476DE9AF77F
:1036A000611020004108000000002008E328C649FE
:1036B000200804198110C120E21865216108C21890
:1036C0006108200800004100620062008410E528C3
:1036D000E8512C944A7AE640529DEF790D81595277
:1036E0005162C028686A4539A441C651C9498578E4
:1036F000EAB04238420849314000000000000008AA
:10370000E31881108110E541C4416A8396FEF8FEFA
:1037100038FF0EA498DE8439887A8FB418EF59EFF9
:1037200041102000A1080000000000000229E1383B
:103730002010252103210008201045218108E220C6
:10374000A31000000000200020006200A410263119
:10375000A639A229A851E6308100CD41364AFF2181
:103760000A0000088038A2208220820830AC207035
:10377000CAA04450000806214000000000082200B2
:103780008108400824296539A120C97215DEF8FE98
:103790009CFFCFB418FF4FBC097391BD5AFF34B5DD
:1037A000853100008210010000000010A541A22018
:1037B00020000421451961002010400840008210BB
:1037C00000000000410821000000000061102321DA
:1037D0002A63CA726A5AC7392329E010A42925210D
:1037E00000000000000000006210000086310000B0
:1037F000E55027510100C5202000200000082000CE
:103800002000C21824292431C128886A93CD19FFC9
:103810003AFFF0BCD7FE98FE4F9C13CE7AFFEB62C6
:10382000C6392008000021000008634929830010E0
:103830004008E3202000200000080000E310C31827
:103840000429000000000000200000006108642935
:10385000684A285A895265298531E1182000C42018
:10386000811041080000000020004108A210A210B1
:10387000001826416310C949000040000000000004
:10388000E2184429032903294339886211BD76EEE1
:10389000F9F615DED3E553D5D5CDF7EE39FFC220C5
:1038A00085394752C1200008876AAA9B4CB4456AF3
:1038B00000080000A218400800000000E3180419E6
:1038C0002C6B000000002000200000006108853102
:1038D0000642C12802294000E320022981108320EA
:1038E000C21861080000000000006108200085295E
:1038F0000018001083186739A31000000000410071
:103900000642C6398439A120C549C872F1BCF4DD2C
:103910005AFF56E611CD476A0E8CD8E6B7E6C328A3
:10392000475A4EA46B8B63418EB4689BCEC40FC5BF
:103930000008475227520008000040086108A2080A
:1039400054B5000000000000000000008110E641B6
:103950000642224102414010401002210321001082
:103960006529610820000000000040004008A531E2
:103970000000000800006B5A8210000000000000E8
:10398000A95AA5392329A541265A4A83D0BC35E630
:1039900019FF19FF56F6813060109BFF8B8B24397D
:1039A000E982088BCFC431CD0BA4847A0FCD6DACE6
:1039B000ED8BB4C532C503312000000061106100F9
:1039C000D5C5601000000000000000006110A95281
:1039D000A4314B9BA892C23861188008200042187D
:1039E000A110A631A53161084000200040084329FC
:1039F0000000000000004118821881100000200023
:103A0000064A8439E220C5418862AC8B6FACB7F6B8
:103A1000F8FED8F619FF854961103AEF2239C649F8
:103A2000457A079BEED491DD68936472866A66627C
:103A300011B56E9C224933C5000000008218C208EF
:103A4000CD832329000000000000000060084C6BBB
:103A5000E64193ED6FD4487AC338E220200020007D
:103A60000000E639C21800002000400000000219E2
:103A7000200000000000411861188118000020009B
:103A80006439E2288439E549A86AED938FAC76EE73
:103A900019FFB8F6F9FE485A041957CE0010A54987
:103AA0008682C9B3EDD46CBCA993C67A297B02295E
:103AB00094CDEC9320280E9C000021006110E318A7
:103AC00006524431200800000000000061082B630A
:103AD000475A97FEB3ED2FC4698A2441600820003D
:103AE00040086110A210A210200040000000E2185F
:103AF00040000000000065396118C22082182000D3
:103B000044312331E649675A0A730D9CB0B432C57B
:103B100039FFF9F63AFF074AE4104C6BC1304441D3
:103B2000C782EAB32EDD2BAC0BA489938B8B233198
:103B3000D5CDCC9B8FB4265A000001004108C21895
:103B4000675A64318110000000000000A110A952E2
:103B5000CA729AFFF7F612D5AFCB8A9202312000D3
:103B600020080000E318C210400020006008C218BE
:103B7000200000000000AA6244310329032900004C
:103B800043316439C541885A09732E9C0D9CAFB4EA
:103B900018FFD9F6D9F6C541A30882102339C228E7
:103BA000E97A2CB44FDD899B899B2CB48B93223905
:103BB0006FA409838B93C1280000000020006010CF
:103BC000C962C1208110000000000000C218274A0D
:103BD000A97A7AFFFCFF36E68DCB4CC30772C3305F
:103BE000A2206118611065290000400020006108D2
:103BF0000000000000000321E64144312329811820
:103C000085396439E549E96A09738B8B6FAC52C514
:103C1000D7FEB8F697EEA541C31082102339C1280C
:103C200026528DBC70E5C9AB6CBC4CBCABA3224921
:103C3000275AE982255A000800004100C210C22814
:103C40008C7BC1204008200000002000E218C6390B
:103C50006C8319FFBBFF39FF4FDC47A2AAA2877113
:103C60008549033140106529000020002000200014
:103C70000000000000004008C218E320C220C22853
:103C80008539A5418862886A6B8B6B8B6EA435E69B
:103C900076EE57E697F66339A3086210E22880189B
:103CA000A441CEC490E5ADCC30DDEBAB6A93A1303E
:103CB000C128677243390000010800006000475ABC
:103CC0002E94A1186110000000002000E320442978
:103CD0006F9C78F619FFF9FE72F5459A489A888923
:103CE000486A686220106531000000002000000072
:103CF000000800000000200020008218A5392339A8
:103D000064312652C96A876A4A8BEC9B8FAC76EE87
:103D1000F4DD36E656EE665A8208831040184010ED
:103D200021398DC4EDDC0ED5EFD46A9B05622018D5
:103D3000C128A55181182000410861084329C96A9A
:103D40008C7B81188110000000002000E3204429B2
:103D500090A4F5ED98FEF6F5F1ECC7AAC581C889E7
:103D600068720762C22824290000000000000000D9
:103D700000080000000040004008A218C539C651E4
:103D8000A539275A886A2A83298B93D596EED3DDE5
:103D9000B4D536E6D3DDAFACA210621000084010F7
:103DA00060202BBC2BC44CC40DB4E982C55120103B
:103DB00063412331000041084108A1104A736A831E
:103DC000C541A1182008000000000000C218A53954
:103DD000ED9332D557FE95F570E44ABBE579077A45
:103DE0006882024181284431000000000000000088
:103DF0000000000000002000200041102329065A86
:103E0000064A0652E97A098BECABF8FE75EEF3DD53
:103E1000F5DDF6DDB3E592CD81080100000820084C
:103E20000010289369AB089B4A93C459C649A2184D
:103E3000065A40100000620861086010AFAC0873B9
:103E4000E120811800002100000000004008E64148
:103E50004B836FC415F6D6FD30E46BBB4682C56953
:103E6000888AC5616028074A000000000000000041
:103E7000000020000000200000000008E2180652A8
:103E80002652265A4B938782CBAB34F6B6FEF3DD2F
:103E9000F5E5B5DD14EE71C58110010000080000E4
:103EA000000042496682E5690662C130E1282429A2
:103EB000475A00000000410040000552D3D50031B0
:103EC000C12020080000000021000000000007427F
:103ED0002A7B0DBCB3F5F6FD71DCCDCBACB32AA3C8
:103EE0006BABCCAB8C8BAD834008000000000000B6
:103EF0000000200000004100210821108010675AB6
:103F0000265267622A8BA7820472B2E5F7FE91D52A
:103F1000B4D5F6DDF3EDD2D5E21863100000000051
:103F200043000018C4692251C1388028A0202329E9
:103F3000265A0000010021002000CC8B14DE003145
:103F400080180000000000002100200000006852DE
:103F50000973ECB3D3F5D5FDD2E4EEC32ED48CCBEC
:103F60006AABEDB3D5DDB1A4611000000000000024
:103F70002000200000000000210800084000475AEF
:103F8000232D302B2000686C4C0065666745464742
:103F900000303132333435363738394142434445C5
:103FA0004600303132333435363738396162636434
:033FB00065660043
:103FB4007856341280000020000000000024F40031
:103FC40014000020000000000000000000000000B9
:103FD40000000000000000000000000000000000DD
:103FE40000000000000000000000000000000000CD
:103FF40000000000000000000000000000000000BD
:1040040000000000000000000000000000000000AC
:10401400000000000000000000000000000000009C
:08402400000000003254769800
:040000050800019559
:00000001FF
