:020000040800F2
:1000000000000120C5020008CB020008CF02000852
:10001000E7020008EB0200080303000800000000EC
:100020000000000000000000000000001B030008AA
:100030001F0300080000000023030008BD0700089C
:1000400035030008350300083503000835030008B0
:1000500035030008350300083503000835030008A0
:100060003503000835030008350300083503000890
:100070003503000835030008350300083503000880
:1000800035030008350300083503000800000000B0
:100090000000000000000000000000003503000820
:1000A0003503000835030008350300083503000850
:1000B0003503000835030008350300083503000840
:1000C0003503000835030008350300083503000830
:1000D0003503000835030008350300080000000060
:1000E0003503000835030008350300080000000050
:1000F00000000000000000000000000035030008C0
:10010000000000003503000835030008350300082F
:1001100000000000000000000000000000000000DF
:1001200035030008350300083503000835030008CF
:10013000350300080000000000000000000000007F
:10014000000000000000000000000000350300086F
:10015000350300083503000835030008350300089F
:10016000350300083503000800000000000000000F
:10017000000000000000000000000000000000007F
:10018000000000003503000800000000000000002F
:100190003503000800B583B000F0ECF8384B394A5D
:1001A0001360394A1360394900E02146384B9942BF
:1001B0000BD20A684B6801F10C0488689842F4D9A4
:1001C0001168196004330432F8E72E4B1A68314B7A
:1001D0009A4200D0FEE72C4B1A682F4B9A42F9D175
:1001E000274B2E4A13602E4A13602E4B05E0002049
:1001F000106004329342FAD80B462B4A934204D241
:10020000194651F8082B5B68F4E7244B1B6813B9B7
:10021000234B1B6803B1FEE700F0B8F8694601A85C
:1002200000F0A0F8214C224BE41AA4100025AC42A7
:1002300014DC204C204BE41AA4100025AC4213DC43
:100240000099019800F042FB05461C4C1C4BE41A37
:10025000A410002C0EDC284600F082F8144B53F852
:10026000253098470135E2E7134B53F8253098477E
:100270000135E3E7013C124B53F824309847E8E797
:10028000BABADECA000000201000002038030008BF
:100290005003000878563412325476981400002027
:1002A00048000020500300086003000860030008B5
:1002B0006003000860030008600300086003000892
:1002C0006003000808B5FFF765FF00BEFEE71EF0FB
:1002D000040F0CBFEFF30880EFF309807146124A58
:1002E000104700BEFEE700BEFEE71EF0040F0CBF85
:1002F000EFF30880EFF3098071460C4A104700BE07
:10030000FEE71EF0040F0CBFEFF30880EFF3098047
:100310007146074A104700BEFEE700BEFEE700BE7A
:10032000FEE700BEFEE77047E3020008FF02000898
:080330001703000800BEFEE700
:10033800500900080000002014000020500900089F
:100348000000001000000010140000204C000020E5
:0803580000000010000000107D
:10036000FEE7000001230360014B0B60704700BFF4
:100370000400002008B500F00DF8024A024B9A6014
:1003800008BD00BF0000000800ED00E008B500F067
:1003900021F808BD0C4B1A6842F001021A600021D6
:1003A00099601A6822F0847222F480321A60074A37
:1003B0005A601A6822F480221A60D960044B4FF008
:1003C00000629A60704700BF00380240103000247D
:1003D00000ED00E0224B9B6803F00C03042B14D0CB
:1003E000082B16D01BB11F4B1F4A1A6002E01D4B91
:1003F0001D4A1A601A4B9B68C3F303131B4AD15C56
:10040000184A1368CB4013607047164B184A1A609D
:10041000F0E7134B5A685B6803F03F0312F4800F58
:1004200013D0134AB2FBF3F20D4B5B68C3F388138E
:1004300003FB02F30A4A5268C2F30142013252003E
:10044000B3FBF2F3074A1360D4E7074AB2FBF3F2B7
:10045000034B5B68C3F3881303FB02F3EAE700BFB7
:10046000003802400C0000200024F400400900087D
:1004700040787D0105282DD8DFE800F0030A111827
:100480001F261548036849008A401A4302607047D6
:100490001248036849008A401A43026070471048B6
:1004A000036849008A401A43026070470D48036898
:1004B00049008A401A43026070470B4803684900AC
:1004C0008A401A43026070470848036849008A401E
:1004D0001A430260704700BF00000240000402405F
:1004E00000080240000C024000100240001C0240C4
:1004F000052827D8DFE800F003090F151B21124853
:1005000043688A401A4342607047104843688A40F3
:100510001A43426070470E4843688A401A4342605B
:1005200070470C4843688A401A43426070470A4843
:1005300043688A401A4342607047084843688A40CB
:100540001A434260704700BF0000024000040240AE
:1005500000080240000C024000100240001C024053
:1005600005282DD8DFE800F0030A11181F261548CA
:10057000836849008A401A43826070471248836842
:1005800049008A401A4382607047104883684900D6
:100590008A401A43826070470D48836849008A4048
:1005A0001A43826070470B48836849008A401A43A7
:1005B000826070470848836849008A401A43826015
:1005C000704700BF000002400004024000080240E3
:1005D000000C024000100240001C0240012A06D01C
:1005E000052870D8DFE800F03A434C555E670528CF
:1005F00069D8DFE800F0030B131B232B3248436953
:10060000012202FA01F11943416170472F48436901
:10061000012202FA01F11943416170472C484369F4
:10062000012202FA01F119434161704729484369E7
:10063000012202FA01F119434161704726484369DA
:10064000012202FA01F119434161704723484369CD
:10065000012202FA01F11943416170471A484369C6
:10066000012202FA01F123EA0101416170471748B2
:100670004369012202FA01F123EA01014161704755
:1006800013484369012202FA01F123EA01014161A1
:10069000704710484369012202FA01F123EA01017F
:1006A000416170470C484369012202FA01F123EAD3
:1006B00001014161704709484369012202FA01F1D1
:1006C00023EA01014161704700000240000402403A
:1006D00000080240000C024000100240001C0240D2
:1006E000032822D8DFE800F0020A121A0F48036834
:1006F000012202FA01F11943016070470C480368B6
:10070000012202FA01F119430160704709480368A8
:10071000012202FA01F1194301607047064803689B
:10072000012202FA01F1194301607047303802409A
:10073000343802404038024044380240074A1368C7
:1007400043F001031360064B1A6822F001021A609D
:100750001A6822F002021A60704700BF0038024097
:1007600008380240014B00221A60704710E000E098
:10077000044B586000229A601A6842F001021A6025
:10078000704700BF10E000E0024B1868C0F3004063
:10079000704700BF10E000E0044B1A6822F002022C
:1007A0001A601A6842EA40001860704710E000E0E2
:1007B000014B1860704700BF1C00002000B583B0DB
:1007C00000238DF80730054B1B689847FFF7DCFFC7
:1007D0008DF8070003B05DF804FB00BF1C0000208B
:1007E00038B5002408E005EB4505A900104A0A4485
:1007F000013B53600134E4B2022C18D8254604EBC7
:1008000044039A000A4B13445B68002BEBD1084960
:100810008A58002AE7D09047054A630018198100DA
:10082000084611448968013902445160E2E738BD45
:100830002000002008B5FFF795FF0120FFF7ACFF6F
:100840000348FFF7B5FF4FF4FA60FFF791FF08BDCB
:10085000E107000802280BD8F0B4064E4400271820
:10086000BD002F463544A9606A60F351F0BC704763
:10087000704700BF2000002008B5054B1A7882F0B1
:1008800001021A7000210846FFF7A8FE08BD00BF4C
:100890004400002008B5054B1A7882F001021A7056
:1008A00001210020FFF79AFE08BD00BF450000208F
:1008B00008B5054B1A7882F001021A700221002057
:1008C000FFF78CFE08BD00BF4600002010B5FFF703
:1008D00035FF00210846FFF703FF002410E0012246
:1008E00021460020FFF7C6FD012221460020FFF728
:1008F00037FE002221461046FFF7FAFD0134E4B22C
:10090000022CECD90B4B00224FF4FA611046FFF792
:10091000A1FF094B012241F288311046FFF79AFFEF
:10092000064B022242F210711046FFF793FFFFF7C9
:1009300081FFFEE77908000895080008B108000863
:10094000000000000000000001020304060708097F
:100950007856341218000020000000000024F40033
:0409600032547698FF
:040000050800019559
:00000001FF
